{
  "_format": "hh-sol-artifact-1",
  "contractName": "KnowledgeVault",
  "sourceName": "contracts/KnowledgeVault.sol",
  "abi": [
    {
      "inputs": [
        {
          "internalType": "address",
          "name": "_tokenContract",
          "type": "address"
        }
      ],
      "stateMutability": "nonpayable",
      "type": "constructor"
    },
    {
      "anonymous": false,
      "inputs": [
        {
          "indexed": true,
          "internalType": "address",
          "name": "user",
          "type": "address"
        },
        {
          "indexed": true,
          "internalType": "uint256",
          "name": "eventId",
          "type": "uint256"
        }
      ],
      "name": "EventBooked",
      "type": "event"
    },
    {
      "anonymous": false,
      "inputs": [
        {
          "indexed": true,
          "internalType": "uint256",
          "name": "eventId",
          "type": "uint256"
        },
        {
          "indexed": false,
          "internalType": "string",
          "name": "title",
          "type": "string"
        },
        {
          "indexed": false,
          "internalType": "string",
          "name": "date",
          "type": "string"
        },
        {
          "indexed": false,
          "internalType": "uint256",
          "name": "cost",
          "type": "uint256"
        }
      ],
      "name": "EventCreated",
      "type": "event"
    },
    {
      "anonymous": false,
      "inputs": [
        {
          "indexed": true,
          "internalType": "uint256",
          "name": "id",
          "type": "uint256"
        },
        {
          "indexed": false,
          "internalType": "bool",
          "name": "status",
          "type": "bool"
        }
      ],
      "name": "ResourceApproved",
      "type": "event"
    },
    {
      "anonymous": false,
      "inputs": [
        {
          "indexed": true,
          "internalType": "uint256",
          "name": "id",
          "type": "uint256"
        },
        {
          "indexed": true,
          "internalType": "address",
          "name": "contributor",
          "type": "address"
        },
        {
          "indexed": false,
          "internalType": "string",
          "name": "title",
          "type": "string"
        },
        {
          "indexed": false,
          "internalType": "enum KnowledgeVault.ResourceCategory",
          "name": "category",
          "type": "uint8"
        }
      ],
      "name": "ResourceSubmitted",
      "type": "event"
    },
    {
      "anonymous": false,
      "inputs": [
        {
          "indexed": true,
          "internalType": "address",
          "name": "contributor",
          "type": "address"
        },
        {
          "indexed": false,
          "internalType": "uint256",
          "name": "amount",
          "type": "uint256"
        }
      ],
      "name": "TokensRewarded",
      "type": "event"
    },
    {
      "inputs": [],
      "name": "admin",
      "outputs": [
        {
          "internalType": "address",
          "name": "",
          "type": "address"
        }
      ],
      "stateMutability": "view",
      "type": "function"
    },
    {
      "inputs": [
        {
          "internalType": "uint256",
          "name": "_eventId",
          "type": "uint256"
        }
      ],
      "name": "bookEvent",
      "outputs": [],
      "stateMutability": "nonpayable",
      "type": "function"
    },
    {
      "inputs": [
        {
          "internalType": "string",
          "name": "_title",
          "type": "string"
        },
        {
          "internalType": "string",
          "name": "_description",
          "type": "string"
        },
        {
          "internalType": "string",
          "name": "_date",
          "type": "string"
        },
        {
          "internalType": "string",
          "name": "_link",
          "type": "string"
        },
        {
          "internalType": "uint256",
          "name": "_cost",
          "type": "uint256"
        }
      ],
      "name": "createEvent",
      "outputs": [],
      "stateMutability": "nonpayable",
      "type": "function"
    },
    {
      "inputs": [
        {
          "internalType": "uint256",
          "name": "_resourceId",
          "type": "uint256"
        }
      ],
      "name": "downvoteResource",
      "outputs": [],
      "stateMutability": "nonpayable",
      "type": "function"
    },
    {
      "inputs": [],
      "name": "eventCount",
      "outputs": [
        {
          "internalType": "uint256",
          "name": "",
          "type": "uint256"
        }
      ],
      "stateMutability": "view",
      "type": "function"
    },
    {
      "inputs": [
        {
          "internalType": "uint256",
          "name": "",
          "type": "uint256"
        }
      ],
      "name": "events",
      "outputs": [
        {
          "internalType": "uint256",
          "name": "id",
          "type": "uint256"
        },
        {
          "internalType": "string",
          "name": "title",
          "type": "string"
        },
        {
          "internalType": "string",
          "name": "description",
          "type": "string"
        },
        {
          "internalType": "string",
          "name": "date",
          "type": "string"
        },
        {
          "internalType": "string",
          "name": "link",
          "type": "string"
        },
        {
          "internalType": "uint256",
          "name": "cost",
          "type": "uint256"
        }
      ],
      "stateMutability": "view",
      "type": "function"
    },
    {
      "inputs": [
        {
          "internalType": "address",
          "name": "_user",
          "type": "address"
        }
      ],
      "name": "getBookedEvents",
      "outputs": [
        {
          "internalType": "uint256[]",
          "name": "",
          "type": "uint256[]"
        }
      ],
      "stateMutability": "view",
      "type": "function"
    },
    {
      "inputs": [
        {
          "internalType": "uint256",
          "name": "_eventId",
          "type": "uint256"
        }
      ],
      "name": "getEvent",
      "outputs": [
        {
          "components": [
            {
              "internalType": "uint256",
              "name": "id",
              "type": "uint256"
            },
            {
              "internalType": "string",
              "name": "title",
              "type": "string"
            },
            {
              "internalType": "string",
              "name": "description",
              "type": "string"
            },
            {
              "internalType": "string",
              "name": "date",
              "type": "string"
            },
            {
              "internalType": "string",
              "name": "link",
              "type": "string"
            },
            {
              "internalType": "uint256",
              "name": "cost",
              "type": "uint256"
            }
          ],
          "internalType": "struct KnowledgeVault.Event",
          "name": "",
          "type": "tuple"
        }
      ],
      "stateMutability": "view",
      "type": "function"
    },
    {
      "inputs": [
        {
          "internalType": "address",
          "name": "_user",
          "type": "address"
        }
      ],
      "name": "getProfile",
      "outputs": [
        {
          "internalType": "uint256",
          "name": "",
          "type": "uint256"
        },
        {
          "internalType": "uint256",
          "name": "",
          "type": "uint256"
        }
      ],
      "stateMutability": "view",
      "type": "function"
    },
    {
      "inputs": [],
      "name": "resourceCount",
      "outputs": [
        {
          "internalType": "uint256",
          "name": "",
          "type": "uint256"
        }
      ],
      "stateMutability": "view",
      "type": "function"
    },
    {
      "inputs": [
        {
          "internalType": "uint256",
          "name": "",
          "type": "uint256"
        }
      ],
      "name": "resources",
      "outputs": [
        {
          "internalType": "uint256",
          "name": "id",
          "type": "uint256"
        },
        {
          "internalType": "string",
          "name": "title",
          "type": "string"
        },
        {
          "internalType": "string",
          "name": "url",
          "type": "string"
        },
        {
          "internalType": "string",
          "name": "description",
          "type": "string"
        },
        {
          "internalType": "enum KnowledgeVault.ResourceCategory",
          "name": "category",
          "type": "uint8"
        },
        {
          "internalType": "address",
          "name": "contributor",
          "type": "address"
        },
        {
          "internalType": "uint256",
          "name": "upvotes",
          "type": "uint256"
        },
        {
          "internalType": "uint256",
          "name": "downvotes",
          "type": "uint256"
        },
        {
          "internalType": "bool",
          "name": "approved",
          "type": "bool"
        }
      ],
      "stateMutability": "view",
      "type": "function"
    },
    {
      "inputs": [],
      "name": "rewardPerUpvote",
      "outputs": [
        {
          "internalType": "uint256",
          "name": "",
          "type": "uint256"
        }
      ],
      "stateMutability": "view",
      "type": "function"
    },
    {
      "inputs": [
        {
          "internalType": "uint256",
          "name": "_reward",
          "type": "uint256"
        }
      ],
      "name": "setRewardPerUpvote",
      "outputs": [],
      "stateMutability": "nonpayable",
      "type": "function"
    },
    {
      "inputs": [
        {
          "internalType": "string",
          "name": "_title",
          "type": "string"
        },
        {
          "internalType": "string",
          "name": "_url",
          "type": "string"
        },
        {
          "internalType": "string",
          "name": "_description",
          "type": "string"
        },
        {
          "internalType": "string[]",
          "name": "_tags",
          "type": "string[]"
        },
        {
          "internalType": "enum KnowledgeVault.ResourceCategory",
          "name": "_category",
          "type": "uint8"
        }
      ],
      "name": "submitResource",
      "outputs": [],
      "stateMutability": "nonpayable",
      "type": "function"
    },
    {
      "inputs": [],
      "name": "tokenContract",
      "outputs": [
        {
          "internalType": "address",
          "name": "",
          "type": "address"
        }
      ],
      "stateMutability": "view",
      "type": "function"
    },
    {
      "inputs": [
        {
          "internalType": "uint256",
          "name": "_resourceId",
          "type": "uint256"
        }
      ],
      "name": "upvoteResource",
      "outputs": [],
      "stateMutability": "nonpayable",
      "type": "function"
    },
    {
      "inputs": [
        {
          "internalType": "address",
          "name": "",
          "type": "address"
        },
        {
          "internalType": "uint256",
          "name": "",
          "type": "uint256"
        }
      ],
      "name": "userBookedEvents",
      "outputs": [
        {
          "internalType": "uint256",
          "name": "",
          "type": "uint256"
        }
      ],
      "stateMutability": "view",
      "type": "function"
    },
    {
      "inputs": [
        {
          "internalType": "address",
          "name": "",
          "type": "address"
        }
      ],
      "name": "userProfiles",
      "outputs": [
        {
          "internalType": "uint256",
          "name": "totalContributions",
          "type": "uint256"
        },
        {
          "internalType": "uint256",
          "name": "totalTokensEarned",
          "type": "uint256"
        }
      ],
      "stateMutability": "view",
      "type": "function"
    }
  ],
  "bytecode": "0x6080604052600a6004553480156200001657600080fd5b5060405162002c9738038062002c9783398181016040528101906200003c91906200012f565b33600260006101000a81548173ffffffffffffffffffffffffffffffffffffffff021916908373ffffffffffffffffffffffffffffffffffffffff16021790555080600360006101000a81548173ffffffffffffffffffffffffffffffffffffffff021916908373ffffffffffffffffffffffffffffffffffffffff1602179055505062000161565b600080fd5b600073ffffffffffffffffffffffffffffffffffffffff82169050919050565b6000620000f782620000ca565b9050919050565b6200010981620000ea565b81146200011557600080fd5b50565b6000815190506200012981620000fe565b92915050565b600060208284031215620001485762000147620000c5565b5b6000620001588482850162000118565b91505092915050565b612b2680620001716000396000f3fe608060405234801561001057600080fd5b50600436106101165760003560e01c806355a373d6116100a25780637e92ac02116100715780637e92ac021461031657806389f9199a14610332578063bdcf5b8e1461034e578063d0f85d1c1461036a578063f851a4401461039a57610116565b806355a373d61461028c578063659d4151146102aa5780636d1884e0146102c857806371be2e4a146102f857610116565b8063244d6daa116100e9578063244d6daa146101bb57806326f9d412146101f357806332401c0714610223578063332d56d71461023f5780634e759dfa1461027057610116565b80630a3fa24a1461011b5780630b791430146101395780630f53a4701461016e578063121d45391461019f575b600080fd5b6101236103b8565b6040516101309190611921565b60405180910390f35b610153600480360381019061014e919061197c565b6103be565b60405161016596959493929190611a39565b60405180910390f35b61018860048036038101906101839190611b14565b61061a565b604051610196929190611b41565b60405180910390f35b6101b960048036038101906101b49190611daa565b6106ac565b005b6101d560048036038101906101d0919061197c565b610917565b6040516101ea99989796959493929190611f36565b60405180910390f35b61020d60048036038101906102089190611fd8565b610b37565b60405161021a9190611921565b60405180910390f35b61023d6004803603810190610238919061197c565b610b68565b005b61025960048036038101906102549190611b14565b610c02565b604051610267929190611b41565b60405180910390f35b61028a6004803603810190610285919061197c565b610c26565b005b610294610f1d565b6040516102a19190612018565b60405180910390f35b6102b2610f43565b6040516102bf9190611921565b60405180910390f35b6102e260048036038101906102dd919061197c565b610f49565b6040516102ef919061212a565b60405180910390f35b6103006111d2565b60405161030d9190611921565b60405180910390f35b610330600480360381019061032b919061197c565b6111d8565b005b61034c6004803603810190610347919061197c565b6112d8565b005b6103686004803603810190610363919061214c565b61159b565b005b610384600480360381019061037f9190611b14565b61173b565b60405161039191906122e6565b60405180910390f35b6103a26117d2565b6040516103af9190612018565b60405180910390f35b60005481565b60076020528060005260406000206000915090508060000154908060010180546103e790612337565b80601f016020809104026020016040519081016040528092919081815260200182805461041390612337565b80156104605780601f1061043557610100808354040283529160200191610460565b820191906000526020600020905b81548152906001019060200180831161044357829003601f168201915b50505050509080600201805461047590612337565b80601f01602080910402602001604051908101604052809291908181526020018280546104a190612337565b80156104ee5780601f106104c3576101008083540402835291602001916104ee565b820191906000526020600020905b8154815290600101906020018083116104d157829003601f168201915b50505050509080600301805461050390612337565b80601f016020809104026020016040519081016040528092919081815260200182805461052f90612337565b801561057c5780601f106105515761010080835404028352916020019161057c565b820191906000526020600020905b81548152906001019060200180831161055f57829003601f168201915b50505050509080600401805461059190612337565b80601f01602080910402602001604051908101604052809291908181526020018280546105bd90612337565b801561060a5780601f106105df5761010080835404028352916020019161060a565b820191906000526020600020905b8154815290600101906020018083116105ed57829003601f168201915b5050505050908060050154905086565b600080600660008473ffffffffffffffffffffffffffffffffffffffff1673ffffffffffffffffffffffffffffffffffffffff16815260200190815260200160002060000154600660008573ffffffffffffffffffffffffffffffffffffffff1673ffffffffffffffffffffffffffffffffffffffff1681526020019081526020016000206001015491509150915091565b6000808154809291906106be90612397565b9190505550604051806101400160405280600054815260200186815260200185815260200184815260200183815260200182600381111561070257610701611e95565b5b81526020013373ffffffffffffffffffffffffffffffffffffffff168152602001600081526020016000815260200160001515815250600560008054815260200190815260200160002060008201518160000155602082015181600101908161076b919061258b565b506040820151816002019081610781919061258b565b506060820151816003019081610797919061258b565b5060808201518160040190805190602001906107b49291906117f8565b5060a08201518160050160006101000a81548160ff021916908360038111156107e0576107df611e95565b5b021790555060c08201518160050160016101000a81548173ffffffffffffffffffffffffffffffffffffffff021916908373ffffffffffffffffffffffffffffffffffffffff16021790555060e0820151816006015561010082015181600701556101208201518160080160006101000a81548160ff021916908315150217905550905050600660003373ffffffffffffffffffffffffffffffffffffffff1673ffffffffffffffffffffffffffffffffffffffff16815260200190815260200160002060000160008154809291906108b890612397565b91905055503373ffffffffffffffffffffffffffffffffffffffff166000547fe2098d70fb0094891c733892609ecf1224a02d968ce23ab52fb69af2b50374e8878460405161090892919061265d565b60405180910390a35050505050565b600560205280600052604060002060009150905080600001549080600101805461094090612337565b80601f016020809104026020016040519081016040528092919081815260200182805461096c90612337565b80156109b95780601f1061098e576101008083540402835291602001916109b9565b820191906000526020600020905b81548152906001019060200180831161099c57829003601f168201915b5050505050908060020180546109ce90612337565b80601f01602080910402602001604051908101604052809291908181526020018280546109fa90612337565b8015610a475780601f10610a1c57610100808354040283529160200191610a47565b820191906000526020600020905b815481529060010190602001808311610a2a57829003601f168201915b505050505090806003018054610a5c90612337565b80601f0160208091040260200160405190810160405280929190818152602001828054610a8890612337565b8015610ad55780601f10610aaa57610100808354040283529160200191610ad5565b820191906000526020600020905b815481529060010190602001808311610ab857829003601f168201915b5050505050908060050160009054906101000a900460ff16908060050160019054906101000a900473ffffffffffffffffffffffffffffffffffffffff16908060060154908060070154908060080160009054906101000a900460ff16905089565b60086020528160005260406000208181548110610b5357600080fd5b90600052602060002001600091509150505481565b600260009054906101000a900473ffffffffffffffffffffffffffffffffffffffff1673ffffffffffffffffffffffffffffffffffffffff163373ffffffffffffffffffffffffffffffffffffffff1614610bf8576040517f08c379a0000000000000000000000000000000000000000000000000000000008152600401610bef906126d9565b60405180910390fd5b8060048190555050565b60066020528060005260406000206000915090508060000154908060010154905082565b60006005600083815260200190815260200160002090506000816000015403610c84576040517f08c379a0000000000000000000000000000000000000000000000000000000008152600401610c7b90612745565b60405180910390fd5b3373ffffffffffffffffffffffffffffffffffffffff168160050160019054906101000a900473ffffffffffffffffffffffffffffffffffffffff1673ffffffffffffffffffffffffffffffffffffffff1603610d16576040517f08c379a0000000000000000000000000000000000000000000000000000000008152600401610d0d906127d7565b60405180910390fd5b806006016000815480929190610d2b90612397565b91905055506000678ac7230489e800009050600360009054906101000a900473ffffffffffffffffffffffffffffffffffffffff1673ffffffffffffffffffffffffffffffffffffffff166340c10f198360050160019054906101000a900473ffffffffffffffffffffffffffffffffffffffff16836040518363ffffffff1660e01b8152600401610dbe9291906127f7565b600060405180830381600087803b158015610dd857600080fd5b505af1158015610dec573d6000803e3d6000fd5b5050505080600660008460050160019054906101000a900473ffffffffffffffffffffffffffffffffffffffff1673ffffffffffffffffffffffffffffffffffffffff1673ffffffffffffffffffffffffffffffffffffffff1681526020019081526020016000206001016000828254610e669190612820565b925050819055508160050160019054906101000a900473ffffffffffffffffffffffffffffffffffffffff1673ffffffffffffffffffffffffffffffffffffffff167f0d3ecba324ef5a283bcbd5d1a966cab18661432ab3575740c588f7a0144b0dfa82604051610ed79190611921565b60405180910390a2827f3b33fe33fd5a20cdf318659e95f06b725880efaa8c2d96ad59e4b0e01b00edb56001604051610f109190612854565b60405180910390a2505050565b600360009054906101000a900473ffffffffffffffffffffffffffffffffffffffff1681565b60045481565b610f51611851565b600760008381526020019081526020016000206040518060c001604052908160008201548152602001600182018054610f8990612337565b80601f0160208091040260200160405190810160405280929190818152602001828054610fb590612337565b80156110025780601f10610fd757610100808354040283529160200191611002565b820191906000526020600020905b815481529060010190602001808311610fe557829003601f168201915b5050505050815260200160028201805461101b90612337565b80601f016020809104026020016040519081016040528092919081815260200182805461104790612337565b80156110945780601f1061106957610100808354040283529160200191611094565b820191906000526020600020905b81548152906001019060200180831161107757829003601f168201915b505050505081526020016003820180546110ad90612337565b80601f01602080910402602001604051908101604052809291908181526020018280546110d990612337565b80156111265780601f106110fb57610100808354040283529160200191611126565b820191906000526020600020905b81548152906001019060200180831161110957829003601f168201915b5050505050815260200160048201805461113f90612337565b80601f016020809104026020016040519081016040528092919081815260200182805461116b90612337565b80156111b85780601f1061118d576101008083540402835291602001916111b8565b820191906000526020600020905b81548152906001019060200180831161119b57829003601f168201915b505050505081526020016005820154815250509050919050565b60015481565b60006005600083815260200190815260200160002090503373ffffffffffffffffffffffffffffffffffffffff168160050160019054906101000a900473ffffffffffffffffffffffffffffffffffffffff1673ffffffffffffffffffffffffffffffffffffffff1603611281576040517f08c379a0000000000000000000000000000000000000000000000000000000008152600401611278906128e1565b60405180910390fd5b80600701600081548092919061129690612397565b9190505550817f3b33fe33fd5a20cdf318659e95f06b725880efaa8c2d96ad59e4b0e01b00edb560006040516112cc9190612854565b60405180910390a25050565b60006007600083815260200190815260200160002090506000816000015403611336576040517f08c379a000000000000000000000000000000000000000000000000000000000815260040161132d9061294d565b60405180910390fd5b6000816005015490506000600360009054906101000a900473ffffffffffffffffffffffffffffffffffffffff1673ffffffffffffffffffffffffffffffffffffffff166370a08231336040518263ffffffff1660e01b815260040161139c9190612018565b602060405180830381865afa1580156113b9573d6000803e3d6000fd5b505050506040513d601f19601f820116820180604052508101906113dd9190612982565b905081811015611422576040517f08c379a0000000000000000000000000000000000000000000000000000000008152600401611419906129fb565b60405180910390fd5b600360009054906101000a900473ffffffffffffffffffffffffffffffffffffffff1673ffffffffffffffffffffffffffffffffffffffff166323b872dd33600260009054906101000a900473ffffffffffffffffffffffffffffffffffffffff16856040518463ffffffff1660e01b81526004016114a393929190612a1b565b6020604051808303816000875af11580156114c2573d6000803e3d6000fd5b505050506040513d601f19601f820116820180604052508101906114e69190612a7e565b50600860003373ffffffffffffffffffffffffffffffffffffffff1673ffffffffffffffffffffffffffffffffffffffff16815260200190815260200160002084908060018154018082558091505060019003906000526020600020016000909190919091505582600001543373ffffffffffffffffffffffffffffffffffffffff167f9685a065ea670ee749732bd0ca5b05452f342bb2895a5ce7475bce03e670bb1360405160405180910390a350505050565b600260009054906101000a900473ffffffffffffffffffffffffffffffffffffffff1673ffffffffffffffffffffffffffffffffffffffff163373ffffffffffffffffffffffffffffffffffffffff161461162b576040517f08c379a0000000000000000000000000000000000000000000000000000000008152600401611622906126d9565b60405180910390fd5b6001600081548092919061163e90612397565b91905055506040518060c001604052806001548152602001868152602001858152602001848152602001838152602001828152506007600060015481526020019081526020016000206000820151816000015560208201518160010190816116a6919061258b565b5060408201518160020190816116bc919061258b565b5060608201518160030190816116d2919061258b565b5060808201518160040190816116e8919061258b565b5060a082015181600501559050506001547fc3c73c6e241661d903c3cd6d17266ff5d3b495e57afa5898c2c429e4b7d4747086858460405161172c93929190612aab565b60405180910390a25050505050565b6060600860008373ffffffffffffffffffffffffffffffffffffffff1673ffffffffffffffffffffffffffffffffffffffff1681526020019081526020016000208054806020026020016040519081016040528092919081815260200182805480156117c657602002820191906000526020600020905b8154815260200190600101908083116117b2575b50505050509050919050565b600260009054906101000a900473ffffffffffffffffffffffffffffffffffffffff1681565b828054828255906000526020600020908101928215611840579160200282015b8281111561183f57825182908161182f919061258b565b5091602001919060010190611818565b5b50905061184d9190611887565b5090565b6040518060c001604052806000815260200160608152602001606081526020016060815260200160608152602001600081525090565b5b808211156118a7576000818161189e91906118ab565b50600101611888565b5090565b5080546118b790612337565b6000825580601f106118c957506118e8565b601f0160209004906000526020600020908101906118e791906118eb565b5b50565b5b808211156119045760008160009055506001016118ec565b5090565b6000819050919050565b61191b81611908565b82525050565b60006020820190506119366000830184611912565b92915050565b6000604051905090565b600080fd5b600080fd5b61195981611908565b811461196457600080fd5b50565b60008135905061197681611950565b92915050565b60006020828403121561199257611991611946565b5b60006119a084828501611967565b91505092915050565b600081519050919050565b600082825260208201905092915050565b60005b838110156119e35780820151818401526020810190506119c8565b60008484015250505050565b6000601f19601f8301169050919050565b6000611a0b826119a9565b611a1581856119b4565b9350611a258185602086016119c5565b611a2e816119ef565b840191505092915050565b600060c082019050611a4e6000830189611912565b8181036020830152611a608188611a00565b90508181036040830152611a748187611a00565b90508181036060830152611a888186611a00565b90508181036080830152611a9c8185611a00565b9050611aab60a0830184611912565b979650505050505050565b600073ffffffffffffffffffffffffffffffffffffffff82169050919050565b6000611ae182611ab6565b9050919050565b611af181611ad6565b8114611afc57600080fd5b50565b600081359050611b0e81611ae8565b92915050565b600060208284031215611b2a57611b29611946565b5b6000611b3884828501611aff565b91505092915050565b6000604082019050611b566000830185611912565b611b636020830184611912565b9392505050565b600080fd5b600080fd5b7f4e487b7100000000000000000000000000000000000000000000000000000000600052604160045260246000fd5b611bac826119ef565b810181811067ffffffffffffffff82111715611bcb57611bca611b74565b5b80604052505050565b6000611bde61193c565b9050611bea8282611ba3565b919050565b600067ffffffffffffffff821115611c0a57611c09611b74565b5b611c13826119ef565b9050602081019050919050565b82818337600083830152505050565b6000611c42611c3d84611bef565b611bd4565b905082815260208101848484011115611c5e57611c5d611b6f565b5b611c69848285611c20565b509392505050565b600082601f830112611c8657611c85611b6a565b5b8135611c96848260208601611c2f565b91505092915050565b600067ffffffffffffffff821115611cba57611cb9611b74565b5b602082029050602081019050919050565b600080fd5b6000611ce3611cde84611c9f565b611bd4565b90508083825260208201905060208402830185811115611d0657611d05611ccb565b5b835b81811015611d4d57803567ffffffffffffffff811115611d2b57611d2a611b6a565b5b808601611d388982611c71565b85526020850194505050602081019050611d08565b5050509392505050565b600082601f830112611d6c57611d6b611b6a565b5b8135611d7c848260208601611cd0565b91505092915050565b60048110611d9257600080fd5b50565b600081359050611da481611d85565b92915050565b600080600080600060a08688031215611dc657611dc5611946565b5b600086013567ffffffffffffffff811115611de457611de361194b565b5b611df088828901611c71565b955050602086013567ffffffffffffffff811115611e1157611e1061194b565b5b611e1d88828901611c71565b945050604086013567ffffffffffffffff811115611e3e57611e3d61194b565b5b611e4a88828901611c71565b935050606086013567ffffffffffffffff811115611e6b57611e6a61194b565b5b611e7788828901611d57565b9250506080611e8888828901611d95565b9150509295509295909350565b7f4e487b7100000000000000000000000000000000000000000000000000000000600052602160045260246000fd5b60048110611ed557611ed4611e95565b5b50565b6000819050611ee682611ec4565b919050565b6000611ef682611ed8565b9050919050565b611f0681611eeb565b82525050565b611f1581611ad6565b82525050565b60008115159050919050565b611f3081611f1b565b82525050565b600061012082019050611f4c600083018c611912565b8181036020830152611f5e818b611a00565b90508181036040830152611f72818a611a00565b90508181036060830152611f868189611a00565b9050611f956080830188611efd565b611fa260a0830187611f0c565b611faf60c0830186611912565b611fbc60e0830185611912565b611fca610100830184611f27565b9a9950505050505050505050565b60008060408385031215611fef57611fee611946565b5b6000611ffd85828601611aff565b925050602061200e85828601611967565b9150509250929050565b600060208201905061202d6000830184611f0c565b92915050565b61203c81611908565b82525050565b600082825260208201905092915050565b600061205e826119a9565b6120688185612042565b93506120788185602086016119c5565b612081816119ef565b840191505092915050565b600060c0830160008301516120a46000860182612033565b50602083015184820360208601526120bc8282612053565b915050604083015184820360408601526120d68282612053565b915050606083015184820360608601526120f08282612053565b9150506080830151848203608086015261210a8282612053565b91505060a083015161211f60a0860182612033565b508091505092915050565b60006020820190508181036000830152612144818461208c565b905092915050565b600080600080600060a0868803121561216857612167611946565b5b600086013567ffffffffffffffff8111156121865761218561194b565b5b61219288828901611c71565b955050602086013567ffffffffffffffff8111156121b3576121b261194b565b5b6121bf88828901611c71565b945050604086013567ffffffffffffffff8111156121e0576121df61194b565b5b6121ec88828901611c71565b935050606086013567ffffffffffffffff81111561220d5761220c61194b565b5b61221988828901611c71565b925050608061222a88828901611967565b9150509295509295909350565b600081519050919050565b600082825260208201905092915050565b6000819050602082019050919050565b600061226f8383612033565b60208301905092915050565b6000602082019050919050565b600061229382612237565b61229d8185612242565b93506122a883612253565b8060005b838110156122d95781516122c08882612263565b97506122cb8361227b565b9250506001810190506122ac565b5085935050505092915050565b600060208201905081810360008301526123008184612288565b905092915050565b7f4e487b7100000000000000000000000000000000000000000000000000000000600052602260045260246000fd5b6000600282049050600182168061234f57607f821691505b60208210810361236257612361612308565b5b50919050565b7f4e487b7100000000000000000000000000000000000000000000000000000000600052601160045260246000fd5b60006123a282611908565b91507fffffffffffffffffffffffffffffffffffffffffffffffffffffffffffffffff82036123d4576123d3612368565b5b600182019050919050565b60008190508160005260206000209050919050565b60006020601f8301049050919050565b600082821b905092915050565b6000600883026124417fffffffffffffffffffffffffffffffffffffffffffffffffffffffffffffffff82612404565b61244b8683612404565b95508019841693508086168417925050509392505050565b6000819050919050565b600061248861248361247e84611908565b612463565b611908565b9050919050565b6000819050919050565b6124a28361246d565b6124b66124ae8261248f565b848454612411565b825550505050565b600090565b6124cb6124be565b6124d6818484612499565b505050565b5b818110156124fa576124ef6000826124c3565b6001810190506124dc565b5050565b601f82111561253f57612510816123df565b612519846123f4565b81016020851015612528578190505b61253c612534856123f4565b8301826124db565b50505b505050565b600082821c905092915050565b600061256260001984600802612544565b1980831691505092915050565b600061257b8383612551565b9150826002028217905092915050565b612594826119a9565b67ffffffffffffffff8111156125ad576125ac611b74565b5b6125b78254612337565b6125c28282856124fe565b600060209050601f8311600181146125f557600084156125e3578287015190505b6125ed858261256f565b865550612655565b601f198416612603866123df565b60005b8281101561262b57848901518255600182019150602085019450602081019050612606565b868310156126485784890151612644601f891682612551565b8355505b6001600288020188555050505b505050505050565b600060408201905081810360008301526126778185611a00565b90506126866020830184611efd565b9392505050565b7f4e6f7420617574686f72697a6564000000000000000000000000000000000000600082015250565b60006126c3600e836119b4565b91506126ce8261268d565b602082019050919050565b600060208201905081810360008301526126f2816126b6565b9050919050565b7f5265736f75726365206e6f7420666f756e640000000000000000000000000000600082015250565b600061272f6012836119b4565b915061273a826126f9565b602082019050919050565b6000602082019050818103600083015261275e81612722565b9050919050565b7f436f6e7472696275746f722063616e6e6f74207570766f74652074686569722060008201527f6f776e207265736f757263650000000000000000000000000000000000000000602082015250565b60006127c1602c836119b4565b91506127cc82612765565b604082019050919050565b600060208201905081810360008301526127f0816127b4565b9050919050565b600060408201905061280c6000830185611f0c565b6128196020830184611912565b9392505050565b600061282b82611908565b915061283683611908565b925082820190508082111561284e5761284d612368565b5b92915050565b60006020820190506128696000830184611f27565b92915050565b7f436f6e7472696275746f722063616e6e6f7420646f776e766f7465207468656960008201527f72206f776e207265736f75726365000000000000000000000000000000000000602082015250565b60006128cb602e836119b4565b91506128d68261286f565b604082019050919050565b600060208201905081810360008301526128fa816128be565b9050919050565b7f4576656e74206e6f7420666f756e640000000000000000000000000000000000600082015250565b6000612937600f836119b4565b915061294282612901565b602082019050919050565b600060208201905081810360008301526129668161292a565b9050919050565b60008151905061297c81611950565b92915050565b60006020828403121561299857612997611946565b5b60006129a68482850161296d565b91505092915050565b7f496e73756666696369656e7420746f6b656e7300000000000000000000000000600082015250565b60006129e56013836119b4565b91506129f0826129af565b602082019050919050565b60006020820190508181036000830152612a14816129d8565b9050919050565b6000606082019050612a306000830186611f0c565b612a3d6020830185611f0c565b612a4a6040830184611912565b949350505050565b612a5b81611f1b565b8114612a6657600080fd5b50565b600081519050612a7881612a52565b92915050565b600060208284031215612a9457612a93611946565b5b6000612aa284828501612a69565b91505092915050565b60006060820190508181036000830152612ac58186611a00565b90508181036020830152612ad98185611a00565b9050612ae86040830184611912565b94935050505056fea2646970667358221220b15739852f30b2a65ae4f0cca9596aabb993f991b3f4e4e140fa8c5bf77c398264736f6c63430008180033",
  "linkReferences": {},
  "deployedLinkReferences": {}
}