{
  "_format": "hh-sol-artifact-1",
  "contractName": "StudyDAO",
  "sourceName": "contracts/StudyDAO.sol",
  "abi": [
    {
      "inputs": [
        {
          "internalType": "address",
          "name": "_daoToken",
          "type": "address"
        }
      ],
      "stateMutability": "nonpayable",
      "type": "constructor"
    },
    {
      "anonymous": false,
      "inputs": [
        {
          "indexed": true,
          "internalType": "uint256",
          "name": "proposalId",
          "type": "uint256"
        },
        {
          "indexed": false,
          "internalType": "uint256",
          "name": "totalFundsRaised",
          "type": "uint256"
        }
      ],
      "name": "FundingCompleted",
      "type": "event"
    },
    {
      "anonymous": false,
      "inputs": [
        {
          "indexed": true,
          "internalType": "address",
          "name": "member",
          "type": "address"
        },
        {
          "indexed": false,
          "internalType": "bool",
          "name": "isTeacher",
          "type": "bool"
        }
      ],
      "name": "MemberRegistered",
      "type": "event"
    },
    {
      "anonymous": false,
      "inputs": [
        {
          "indexed": true,
          "internalType": "uint256",
          "name": "proposalId",
          "type": "uint256"
        },
        {
          "indexed": true,
          "internalType": "address",
          "name": "proposer",
          "type": "address"
        },
        {
          "indexed": false,
          "internalType": "string",
          "name": "description",
          "type": "string"
        },
        {
          "indexed": false,
          "internalType": "uint256",
          "name": "goal",
          "type": "uint256"
        }
      ],
      "name": "ProposalCreated",
      "type": "event"
    },
    {
      "anonymous": false,
      "inputs": [
        {
          "indexed": true,
          "internalType": "uint256",
          "name": "proposalId",
          "type": "uint256"
        },
        {
          "indexed": true,
          "internalType": "address",
          "name": "funder",
          "type": "address"
        },
        {
          "indexed": false,
          "internalType": "uint256",
          "name": "amount",
          "type": "uint256"
        }
      ],
      "name": "ProposalFunded",
      "type": "event"
    },
    {
      "anonymous": false,
      "inputs": [
        {
          "indexed": true,
          "internalType": "uint256",
          "name": "proposalId",
          "type": "uint256"
        },
        {
          "indexed": true,
          "internalType": "address",
          "name": "voter",
          "type": "address"
        },
        {
          "indexed": false,
          "internalType": "uint256",
          "name": "votes",
          "type": "uint256"
        }
      ],
      "name": "Voted",
      "type": "event"
    },
    {
      "inputs": [],
      "name": "daoToken",
      "outputs": [
        {
          "internalType": "contract DAOToken",
          "name": "",
          "type": "address"
        }
      ],
      "stateMutability": "view",
      "type": "function"
    },
    {
      "inputs": [
        {
          "internalType": "uint256",
          "name": "_proposalId",
          "type": "uint256"
        }
      ],
      "name": "fundProposal",
      "outputs": [],
      "stateMutability": "payable",
      "type": "function"
    },
    {
      "inputs": [
        {
          "internalType": "address",
          "name": "",
          "type": "address"
        },
        {
          "internalType": "uint256",
          "name": "",
          "type": "uint256"
        }
      ],
      "name": "funderProposals",
      "outputs": [
        {
          "internalType": "uint256",
          "name": "",
          "type": "uint256"
        }
      ],
      "stateMutability": "view",
      "type": "function"
    },
    {
      "inputs": [],
      "name": "fundingRewardMultiplier",
      "outputs": [
        {
          "internalType": "uint256",
          "name": "",
          "type": "uint256"
        }
      ],
      "stateMutability": "view",
      "type": "function"
    },
    {
      "inputs": [
        {
          "internalType": "uint256",
          "name": "_proposalId",
          "type": "uint256"
        },
        {
          "internalType": "address",
          "name": "funder",
          "type": "address"
        }
      ],
      "name": "getFunderContribution",
      "outputs": [
        {
          "internalType": "uint256",
          "name": "",
          "type": "uint256"
        }
      ],
      "stateMutability": "view",
      "type": "function"
    },
    {
      "inputs": [
        {
          "internalType": "uint256",
          "name": "_proposalId",
          "type": "uint256"
        }
      ],
      "name": "getProposal",
      "outputs": [
        {
          "internalType": "uint256",
          "name": "id",
          "type": "uint256"
        },
        {
          "internalType": "string",
          "name": "description",
          "type": "string"
        },
        {
          "internalType": "uint256",
          "name": "votes",
          "type": "uint256"
        },
        {
          "internalType": "uint256",
          "name": "fundsRaised",
          "type": "uint256"
        },
        {
          "internalType": "uint256",
          "name": "goal",
          "type": "uint256"
        },
        {
          "internalType": "address",
          "name": "proposer",
          "type": "address"
        },
        {
          "internalType": "bool",
          "name": "approved",
          "type": "bool"
        },
        {
          "internalType": "bool",
          "name": "fundingCompleted",
          "type": "bool"
        }
      ],
      "stateMutability": "view",
      "type": "function"
    },
    {
      "inputs": [
        {
          "internalType": "address",
          "name": "user",
          "type": "address"
        }
      ],
      "name": "getUserTokenBalance",
      "outputs": [
        {
          "internalType": "uint256",
          "name": "",
          "type": "uint256"
        }
      ],
      "stateMutability": "view",
      "type": "function"
    },
    {
      "inputs": [
        {
          "internalType": "address",
          "name": "",
          "type": "address"
        }
      ],
      "name": "members",
      "outputs": [
        {
          "internalType": "uint256",
          "name": "reputation",
          "type": "uint256"
        },
        {
          "internalType": "bool",
          "name": "isTeacher",
          "type": "bool"
        },
        {
          "internalType": "bool",
          "name": "isStudent",
          "type": "bool"
        },
        {
          "internalType": "string",
          "name": "profileURI",
          "type": "string"
        }
      ],
      "stateMutability": "view",
      "type": "function"
    },
    {
      "inputs": [],
      "name": "proposalCount",
      "outputs": [
        {
          "internalType": "uint256",
          "name": "",
          "type": "uint256"
        }
      ],
      "stateMutability": "view",
      "type": "function"
    },
    {
      "inputs": [
        {
          "internalType": "uint256",
          "name": "",
          "type": "uint256"
        }
      ],
      "name": "proposals",
      "outputs": [
        {
          "internalType": "uint256",
          "name": "id",
          "type": "uint256"
        },
        {
          "internalType": "string",
          "name": "description",
          "type": "string"
        },
        {
          "internalType": "uint256",
          "name": "votes",
          "type": "uint256"
        },
        {
          "internalType": "uint256",
          "name": "fundsRaised",
          "type": "uint256"
        },
        {
          "internalType": "uint256",
          "name": "goal",
          "type": "uint256"
        },
        {
          "internalType": "address",
          "name": "proposer",
          "type": "address"
        },
        {
          "internalType": "bool",
          "name": "approved",
          "type": "bool"
        },
        {
          "internalType": "bool",
          "name": "fundingCompleted",
          "type": "bool"
        }
      ],
      "stateMutability": "view",
      "type": "function"
    },
    {
      "inputs": [
        {
          "internalType": "string",
          "name": "_description",
          "type": "string"
        },
        {
          "internalType": "uint256",
          "name": "_goal",
          "type": "uint256"
        }
      ],
      "name": "proposeContent",
      "outputs": [],
      "stateMutability": "nonpayable",
      "type": "function"
    },
    {
      "inputs": [
        {
          "internalType": "bool",
          "name": "isTeacher",
          "type": "bool"
        },
        {
          "internalType": "string",
          "name": "profile",
          "type": "string"
        }
      ],
      "name": "registerMember",
      "outputs": [],
      "stateMutability": "nonpayable",
      "type": "function"
    },
    {
      "inputs": [],
      "name": "rewardOnApproval",
      "outputs": [
        {
          "internalType": "uint256",
          "name": "",
          "type": "uint256"
        }
      ],
      "stateMutability": "view",
      "type": "function"
    },
    {
      "inputs": [],
      "name": "rewardOnRegistration",
      "outputs": [
        {
          "internalType": "uint256",
          "name": "",
          "type": "uint256"
        }
      ],
      "stateMutability": "view",
      "type": "function"
    },
    {
      "inputs": [
        {
          "internalType": "uint256",
          "name": "_proposalId",
          "type": "uint256"
        }
      ],
      "name": "voteForProposal",
      "outputs": [],
      "stateMutability": "nonpayable",
      "type": "function"
    }
  ],
  "bytecode": "0x608060405268056bc75e2d63100000600555680ad78ebc5ac620000060065560026007553480156200003057600080fd5b50604051620023ef380380620023ef833981810160405281019062000056919062000108565b80600460006101000a81548173ffffffffffffffffffffffffffffffffffffffff021916908373ffffffffffffffffffffffffffffffffffffffff160217905550506200013a565b600080fd5b600073ffffffffffffffffffffffffffffffffffffffff82169050919050565b6000620000d082620000a3565b9050919050565b620000e281620000c3565b8114620000ee57600080fd5b50565b6000815190506200010281620000d7565b92915050565b6000602082840312156200012157620001206200009e565b5b60006200013184828501620000f1565b91505092915050565b6122a5806200014a6000396000f3fe6080604052600436106100e85760003560e01c8063711a907f1161008a578063da35c66411610059578063da35c66414610319578063e210f4b514610344578063ee78655114610360578063f5aec88c1461039d576100e8565b8063711a907f1461025857806371a0edb214610283578063a2a8e377146102ac578063c7f758a8146102d5576100e8565b806315db62f5116100c657806315db62f51461019a5780632e9d826d146101c55780634914b030146101f057806350e5b13c1461021b576100e8565b8063013cf08b146100ed578063045c6ce01461013157806308ae4b0c1461015a575b600080fd5b3480156100f957600080fd5b50610114600480360381019061010f91906114fa565b6103da565b604051610128989796959493929190611622565b60405180910390f35b34801561013d57600080fd5b50610158600480360381019061015391906114fa565b6104e4565b005b34801561016657600080fd5b50610181600480360381019061017c91906116d3565b610775565b6040516101919493929190611700565b60405180910390f35b3480156101a657600080fd5b506101af610847565b6040516101bc919061174c565b60405180910390f35b3480156101d157600080fd5b506101da61084d565b6040516101e7919061174c565b60405180910390f35b3480156101fc57600080fd5b50610205610853565b60405161021291906117c6565b60405180910390f35b34801561022757600080fd5b50610242600480360381019061023d91906117e1565b610879565b60405161024f919061174c565b60405180910390f35b34801561026457600080fd5b5061026d610935565b60405161027a919061174c565b60405180910390f35b34801561028f57600080fd5b506102aa60048036038101906102a59190611956565b61093b565b005b3480156102b857600080fd5b506102d360048036038101906102ce91906119de565b610b09565b005b3480156102e157600080fd5b506102fc60048036038101906102f791906114fa565b610d38565b604051610310989796959493929190611622565b60405180910390f35b34801561032557600080fd5b5061032e610e65565b60405161033b919061174c565b60405180910390f35b61035e600480360381019061035991906114fa565b610e6b565b005b34801561036c57600080fd5b5061038760048036038101906103829190611a3a565b6111e0565b604051610394919061174c565b60405180910390f35b3480156103a957600080fd5b506103c460048036038101906103bf91906116d3565b611211565b6040516103d1919061174c565b60405180910390f35b600160205280600052604060002060009150905080600001549080600101805461040390611aa9565b80601f016020809104026020016040519081016040528092919081815260200182805461042f90611aa9565b801561047c5780601f106104515761010080835404028352916020019161047c565b820191906000526020600020905b81548152906001019060200180831161045f57829003601f168201915b5050505050908060020154908060030154908060040154908060050160009054906101000a900473ffffffffffffffffffffffffffffffffffffffff16908060050160149054906101000a900460ff16908060050160159054906101000a900460ff16905088565b8060016000838152602001908152602001600020600001541461053c576040517f08c379a000000000000000000000000000000000000000000000000000000000815260040161053390611b26565b60405180910390fd5b60006001600083815260200190815260200160002090508060050160149054906101000a900460ff16156105a5576040517f08c379a000000000000000000000000000000000000000000000000000000000815260040161059c90611b92565b60405180910390fd5b6000803373ffffffffffffffffffffffffffffffffffffffff1673ffffffffffffffffffffffffffffffffffffffff168152602001908152602001600020600001548160020160008282546105fa9190611be1565b925050819055503373ffffffffffffffffffffffffffffffffffffffff16827f1abe610cf2bf87e57dcc1181fcf5ac0934e843d8344ab9eed6e86c799f62585e6000803373ffffffffffffffffffffffffffffffffffffffff1673ffffffffffffffffffffffffffffffffffffffff16815260200190815260200160002060000154604051610689919061174c565b60405180910390a36003816002015411156107715760018160050160146101000a81548160ff021916908315150217905550600460009054906101000a900473ffffffffffffffffffffffffffffffffffffffff1673ffffffffffffffffffffffffffffffffffffffff166340c10f198260050160009054906101000a900473ffffffffffffffffffffffffffffffffffffffff166006546040518363ffffffff1660e01b815260040161073e929190611c15565b600060405180830381600087803b15801561075857600080fd5b505af115801561076c573d6000803e3d6000fd5b505050505b5050565b60006020528060005260406000206000915090508060000154908060010160009054906101000a900460ff16908060010160019054906101000a900460ff16908060020180546107c490611aa9565b80601f01602080910402602001604051908101604052809291908181526020018280546107f090611aa9565b801561083d5780601f106108125761010080835404028352916020019161083d565b820191906000526020600020905b81548152906001019060200180831161082057829003601f168201915b5050505050905084565b60075481565b60055481565b600460009054906101000a900473ffffffffffffffffffffffffffffffffffffffff1681565b6000826001600085815260200190815260200160002060000154146108d3576040517f08c379a00000000000000000000000000000000000000000000000000000000081526004016108ca90611b26565b60405180910390fd5b60006001600085815260200190815260200160002090508060060160008473ffffffffffffffffffffffffffffffffffffffff1673ffffffffffffffffffffffffffffffffffffffff1681526020019081526020016000205491505092915050565b60065481565b6000803373ffffffffffffffffffffffffffffffffffffffff1673ffffffffffffffffffffffffffffffffffffffff16815260200190815260200160002060010160009054906101000a900460ff166109c9576040517f08c379a00000000000000000000000000000000000000000000000000000000081526004016109c090611cb0565b60405180910390fd5b600060016000600254815260200190815260200160002090506002548160000181905550828160010190816109fe9190611e72565b506000816002018190555060008160030181905550818160040181905550338160050160006101000a81548173ffffffffffffffffffffffffffffffffffffffff021916908373ffffffffffffffffffffffffffffffffffffffff16021790555060008160050160146101000a81548160ff02191690831515021790555060008160050160156101000a81548160ff0219169083151502179055503373ffffffffffffffffffffffffffffffffffffffff166002547f98120a6aaa04295520ab4e01c6c1235dd316e822cc9ff31db7b3f197366d18bd8585604051610ae4929190611f44565b60405180910390a360026000815480929190610aff90611f74565b9190505550505050565b60008060003373ffffffffffffffffffffffffffffffffffffffff1673ffffffffffffffffffffffffffffffffffffffff1681526020019081526020016000206000015414610b8d576040517f08c379a0000000000000000000000000000000000000000000000000000000008152600401610b8490612008565b60405180910390fd5b6040518060800160405280600181526020018315158152602001831515158152602001828152506000803373ffffffffffffffffffffffffffffffffffffffff1673ffffffffffffffffffffffffffffffffffffffff1681526020019081526020016000206000820151816000015560208201518160010160006101000a81548160ff02191690831515021790555060408201518160010160016101000a81548160ff0219169083151502179055506060820151816002019081610c519190611e72565b50905050600460009054906101000a900473ffffffffffffffffffffffffffffffffffffffff1673ffffffffffffffffffffffffffffffffffffffff166340c10f19336005546040518363ffffffff1660e01b8152600401610cb4929190611c15565b600060405180830381600087803b158015610cce57600080fd5b505af1158015610ce2573d6000803e3d6000fd5b505050503373ffffffffffffffffffffffffffffffffffffffff167fd5eb501de156af36b7187a443fef4786b90cd305453ae8e9f8459b98105240c783604051610d2c9190612028565b60405180910390a25050565b600060606000806000806000806000600160008b815260200190815260200160002090508060000154816001018260020154836003015484600401548560050160009054906101000a900473ffffffffffffffffffffffffffffffffffffffff168660050160149054906101000a900460ff168760050160159054906101000a900460ff16868054610dc990611aa9565b80601f0160208091040260200160405190810160405280929190818152602001828054610df590611aa9565b8015610e425780601f10610e1757610100808354040283529160200191610e42565b820191906000526020600020905b815481529060010190602001808311610e2557829003601f168201915b505050505096509850985098509850985098509850985050919395975091939597565b60025481565b80600160008381526020019081526020016000206000015414610ec3576040517f08c379a0000000000000000000000000000000000000000000000000000000008152600401610eba90611b26565b60405180910390fd5b60006001600083815260200190815260200160002090508060050160149054906101000a900460ff16610f2b576040517f08c379a0000000000000000000000000000000000000000000000000000000008152600401610f229061208f565b60405180910390fd5b8060050160159054906101000a900460ff1615610f7d576040517f08c379a0000000000000000000000000000000000000000000000000000000008152600401610f7490612121565b60405180910390fd5b60008160060160003373ffffffffffffffffffffffffffffffffffffffff1673ffffffffffffffffffffffffffffffffffffffff168152602001908152602001600020540361102d57600360003373ffffffffffffffffffffffffffffffffffffffff1673ffffffffffffffffffffffffffffffffffffffff1681526020019081526020016000208290806001815401808255809150506001900390600052602060002001600090919091909150555b348160030160008282546110419190611be1565b92505081905550348160060160003373ffffffffffffffffffffffffffffffffffffffff1673ffffffffffffffffffffffffffffffffffffffff16815260200190815260200160002060008282546110999190611be1565b925050819055503373ffffffffffffffffffffffffffffffffffffffff16827f5b47478b1a9bcccc0683800f537f513a17c66ebb7a9b7e2773053b37fc83bb05346040516110e7919061174c565b60405180910390a380600401548160030154106111dc5760018160050160156101000a81548160ff021916908315150217905550600081600301549050600082600301819055508160050160009054906101000a900473ffffffffffffffffffffffffffffffffffffffff1673ffffffffffffffffffffffffffffffffffffffff166108fc829081150290604051600060405180830381858888f19350505050158015611198573d6000803e3d6000fd5b506111a2836112b6565b827facef193e0e86e1befd5fb43ab2e5687427446a96568ffb8cb4f7d588c79f6c95826040516111d2919061174c565b60405180910390a2505b5050565b600360205281600052604060002081815481106111fc57600080fd5b90600052602060002001600091509150505481565b6000600460009054906101000a900473ffffffffffffffffffffffffffffffffffffffff1673ffffffffffffffffffffffffffffffffffffffff166370a08231836040518263ffffffff1660e01b815260040161126e9190612141565b602060405180830381865afa15801561128b573d6000803e3d6000fd5b505050506040513d601f19601f820116820180604052508101906112af9190612171565b9050919050565b600060016000838152602001908152602001600020905060008160040154905060005b600360003373ffffffffffffffffffffffffffffffffffffffff1673ffffffffffffffffffffffffffffffffffffffff168152602001908152602001600020805490508110156114aa576000600360003373ffffffffffffffffffffffffffffffffffffffff1673ffffffffffffffffffffffffffffffffffffffff16815260200190815260200160002082815481106113765761137561219e565b5b9060005260206000200154905084810361149c5760008460060160003373ffffffffffffffffffffffffffffffffffffffff1673ffffffffffffffffffffffffffffffffffffffff168152602001908152602001600020549050600081111561149a57600084670de0b6b3a7640000600754846113f391906121cd565b6113fd91906121cd565b611407919061223e565b9050600460009054906101000a900473ffffffffffffffffffffffffffffffffffffffff1673ffffffffffffffffffffffffffffffffffffffff166340c10f1933836040518363ffffffff1660e01b8152600401611466929190611c15565b600060405180830381600087803b15801561148057600080fd5b505af1158015611494573d6000803e3d6000fd5b50505050505b505b5080806001019150506112d9565b50505050565b6000604051905090565b600080fd5b600080fd5b6000819050919050565b6114d7816114c4565b81146114e257600080fd5b50565b6000813590506114f4816114ce565b92915050565b6000602082840312156115105761150f6114ba565b5b600061151e848285016114e5565b91505092915050565b611530816114c4565b82525050565b600081519050919050565b600082825260208201905092915050565b60005b83811015611570578082015181840152602081019050611555565b60008484015250505050565b6000601f19601f8301169050919050565b600061159882611536565b6115a28185611541565b93506115b2818560208601611552565b6115bb8161157c565b840191505092915050565b600073ffffffffffffffffffffffffffffffffffffffff82169050919050565b60006115f1826115c6565b9050919050565b611601816115e6565b82525050565b60008115159050919050565b61161c81611607565b82525050565b600061010082019050611638600083018b611527565b818103602083015261164a818a61158d565b90506116596040830189611527565b6116666060830188611527565b6116736080830187611527565b61168060a08301866115f8565b61168d60c0830185611613565b61169a60e0830184611613565b9998505050505050505050565b6116b0816115e6565b81146116bb57600080fd5b50565b6000813590506116cd816116a7565b92915050565b6000602082840312156116e9576116e86114ba565b5b60006116f7848285016116be565b91505092915050565b60006080820190506117156000830187611527565b6117226020830186611613565b61172f6040830185611613565b8181036060830152611741818461158d565b905095945050505050565b60006020820190506117616000830184611527565b92915050565b6000819050919050565b600061178c611787611782846115c6565b611767565b6115c6565b9050919050565b600061179e82611771565b9050919050565b60006117b082611793565b9050919050565b6117c0816117a5565b82525050565b60006020820190506117db60008301846117b7565b92915050565b600080604083850312156117f8576117f76114ba565b5b6000611806858286016114e5565b9250506020611817858286016116be565b9150509250929050565b600080fd5b600080fd5b7f4e487b7100000000000000000000000000000000000000000000000000000000600052604160045260246000fd5b6118638261157c565b810181811067ffffffffffffffff821117156118825761188161182b565b5b80604052505050565b60006118956114b0565b90506118a1828261185a565b919050565b600067ffffffffffffffff8211156118c1576118c061182b565b5b6118ca8261157c565b9050602081019050919050565b82818337600083830152505050565b60006118f96118f4846118a6565b61188b565b90508281526020810184848401111561191557611914611826565b5b6119208482856118d7565b509392505050565b600082601f83011261193d5761193c611821565b5b813561194d8482602086016118e6565b91505092915050565b6000806040838503121561196d5761196c6114ba565b5b600083013567ffffffffffffffff81111561198b5761198a6114bf565b5b61199785828601611928565b92505060206119a8858286016114e5565b9150509250929050565b6119bb81611607565b81146119c657600080fd5b50565b6000813590506119d8816119b2565b92915050565b600080604083850312156119f5576119f46114ba565b5b6000611a03858286016119c9565b925050602083013567ffffffffffffffff811115611a2457611a236114bf565b5b611a3085828601611928565b9150509250929050565b60008060408385031215611a5157611a506114ba565b5b6000611a5f858286016116be565b9250506020611a70858286016114e5565b9150509250929050565b7f4e487b7100000000000000000000000000000000000000000000000000000000600052602260045260246000fd5b60006002820490506001821680611ac157607f821691505b602082108103611ad457611ad3611a7a565b5b50919050565b7f496e76616c69642070726f706f73616c2049442e000000000000000000000000600082015250565b6000611b10601483611541565b9150611b1b82611ada565b602082019050919050565b60006020820190508181036000830152611b3f81611b03565b9050919050565b7f50726f706f73616c20616c726561647920617070726f7665642e000000000000600082015250565b6000611b7c601a83611541565b9150611b8782611b46565b602082019050919050565b60006020820190508181036000830152611bab81611b6f565b9050919050565b7f4e487b7100000000000000000000000000000000000000000000000000000000600052601160045260246000fd5b6000611bec826114c4565b9150611bf7836114c4565b9250828201905080821115611c0f57611c0e611bb2565b5b92915050565b6000604082019050611c2a60008301856115f8565b611c376020830184611527565b9392505050565b7f4f6e6c792074656163686572732063616e2070726f706f736520636f6e74656e60008201527f742e000000000000000000000000000000000000000000000000000000000000602082015250565b6000611c9a602283611541565b9150611ca582611c3e565b604082019050919050565b60006020820190508181036000830152611cc981611c8d565b9050919050565b60008190508160005260206000209050919050565b60006020601f8301049050919050565b600082821b905092915050565b600060088302611d327fffffffffffffffffffffffffffffffffffffffffffffffffffffffffffffffff82611cf5565b611d3c8683611cf5565b95508019841693508086168417925050509392505050565b6000611d6f611d6a611d65846114c4565b611767565b6114c4565b9050919050565b6000819050919050565b611d8983611d54565b611d9d611d9582611d76565b848454611d02565b825550505050565b600090565b611db2611da5565b611dbd818484611d80565b505050565b5b81811015611de157611dd6600082611daa565b600181019050611dc3565b5050565b601f821115611e2657611df781611cd0565b611e0084611ce5565b81016020851015611e0f578190505b611e23611e1b85611ce5565b830182611dc2565b50505b505050565b600082821c905092915050565b6000611e4960001984600802611e2b565b1980831691505092915050565b6000611e628383611e38565b9150826002028217905092915050565b611e7b82611536565b67ffffffffffffffff811115611e9457611e9361182b565b5b611e9e8254611aa9565b611ea9828285611de5565b600060209050601f831160018114611edc5760008415611eca578287015190505b611ed48582611e56565b865550611f3c565b601f198416611eea86611cd0565b60005b82811015611f1257848901518255600182019150602085019450602081019050611eed565b86831015611f2f5784890151611f2b601f891682611e38565b8355505b6001600288020188555050505b505050505050565b60006040820190508181036000830152611f5e818561158d565b9050611f6d6020830184611527565b9392505050565b6000611f7f826114c4565b91507fffffffffffffffffffffffffffffffffffffffffffffffffffffffffffffffff8203611fb157611fb0611bb2565b5b600182019050919050565b7f4d656d62657220697320616c726561647920726567697374657265642e000000600082015250565b6000611ff2601d83611541565b9150611ffd82611fbc565b602082019050919050565b6000602082019050818103600083015261202181611fe5565b9050919050565b600060208201905061203d6000830184611613565b92915050565b7f50726f706f73616c206e6f7420617070726f766564207965742e000000000000600082015250565b6000612079601a83611541565b915061208482612043565b602082019050919050565b600060208201905081810360008301526120a88161206c565b9050919050565b7f46756e64696e6720616c726561647920636f6d706c6574656420666f7220746860008201527f69732070726f706f73616c2e0000000000000000000000000000000000000000602082015250565b600061210b602c83611541565b9150612116826120af565b604082019050919050565b6000602082019050818103600083015261213a816120fe565b9050919050565b600060208201905061215660008301846115f8565b92915050565b60008151905061216b816114ce565b92915050565b600060208284031215612187576121866114ba565b5b60006121958482850161215c565b91505092915050565b7f4e487b7100000000000000000000000000000000000000000000000000000000600052603260045260246000fd5b60006121d8826114c4565b91506121e3836114c4565b92508282026121f1816114c4565b9150828204841483151761220857612207611bb2565b5b5092915050565b7f4e487b7100000000000000000000000000000000000000000000000000000000600052601260045260246000fd5b6000612249826114c4565b9150612254836114c4565b9250826122645761226361220f565b5b82820490509291505056fea2646970667358221220bb4343ca1e208d71044b7466d70ad75e390120242f177a57525f878e73c2c77264736f6c63430008180033",
  "linkReferences": {},
  "deployedLinkReferences": {}
}